{
  "contractName": "Liquidator",
  "abi": [
    {
      "constant": true,
      "inputs": [],
      "name": "addressesProvider",
      "outputs": [
        {
          "name": "",
          "type": "address"
        }
      ],
      "payable": false,
      "stateMutability": "view",
      "type": "function"
    },
    {
      "inputs": [
        {
          "name": "ILendingAddress",
          "type": "address"
        }
      ],
      "payable": false,
      "stateMutability": "nonpayable",
      "type": "constructor"
    },
    {
      "payable": true,
      "stateMutability": "payable",
      "type": "fallback"
    },
    {
      "constant": false,
      "inputs": [
        {
          "name": "_reserve",
          "type": "address"
        },
        {
          "name": "_amount",
          "type": "uint256"
        },
        {
          "name": "_fee",
          "type": "uint256"
        },
        {
          "name": "_params",
          "type": "bytes"
        }
      ],
      "name": "executeOperation",
      "outputs": [],
      "payable": false,
      "stateMutability": "nonpayable",
      "type": "function"
    },
    {
      "constant": true,
      "inputs": [
        {
          "name": "source",
          "type": "bytes"
        }
      ],
      "name": "getParams",
      "outputs": [
        {
          "name": "",
          "type": "address"
        },
        {
          "name": "",
          "type": "address"
        }
      ],
      "payable": false,
      "stateMutability": "pure",
      "type": "function"
    }
  ],
  "bytecode": "0x608060405234801561001057600080fd5b50604051610a0d380380610a0d8339818101604052602081101561003357600080fd5b5051600080546001600160a01b039092166001600160a01b03199092169190911790556109a8806100656000396000f3fe6080604052600436106100345760003560e01c80636890151314610036578063c72c4d101461010f578063ee87255814610140575b005b34801561004257600080fd5b506100e96004803603602081101561005957600080fd5b81019060208101813564010000000081111561007457600080fd5b82018360208201111561008657600080fd5b803590602001918460018302840111640100000000831117156100a857600080fd5b91908080601f0160208091040260200160405190810160405280939291908181526020018383808284376000920191909152509295506101d9945050505050565b604080516001600160a01b03938416815291909216602082015281519081900390910190f35b34801561011b57600080fd5b506101246102ca565b604080516001600160a01b039092168252519081900360200190f35b34801561014c57600080fd5b506100346004803603608081101561016357600080fd5b6001600160a01b03823516916020810135916040820135919081019060808101606082013564010000000081111561019a57600080fd5b8201836020820111156101ac57600080fd5b803590602001918460018302840111640100000000831117156101ce57600080fd5b5090925090506102d9565b60408051601480825281830190925260009182916060916020820181803883395050604080516014808252818301909252929350606092915060208201818038833901905050905060005b60148110156102ac5785818151811061023957fe5b602001015160f81c60f81b83828151811061025057fe5b60200101906001600160f81b031916908160001a90535085816014018151811061027657fe5b602001015160f81c60f81b82828151811061028d57fe5b60200101906001600160f81b031916908160001a905350600101610224565b506102b682610564565b6102bf82610564565b935093505050915091565b6000546001600160a01b031681565b60008061031b84848080601f0160208091040260200160405190810160405280939291908181526020018383808284376000920191909152506101d992505050565b6040805163dec44c0b60e01b81526001600160a01b03808416600483015291519395509193508392859260009284169163dec44c0b91602480820192602092909190829003018186803b15801561037157600080fd5b505afa158015610385573d6000803e3d6000fd5b505050506040513d602081101561039b57600080fd5b50519050806103f1576040805162461bcd60e51b815260206004820152601d60248201527f63616e6e6f74206c697175696461746520612073616665207661756c74000000604482015290519081900360640190fd5b6000826001600160a01b0316633bd33f626040518163ffffffff1660e01b8152600401602060405180830381600087803b15801561042e57600080fd5b505af1158015610442573d6000803e3d6000fd5b505050506040513d602081101561045857600080fd5b5051604080516390a21dbf60e01b81523060048201526001600160a01b0389811660248301526000604483018190526064830187905292519394508416926390a21dbf928e926084808201939182900301818588803b1580156104ba57600080fd5b505af11580156104ce573d6000803e3d6000fd5b50506040805163bcbaf48760e01b81526001600160a01b038981166004830152602482018890529151918816945063bcbaf4879350604480820193506000929182900301818387803b15801561052357600080fd5b505af1158015610537573d6000803e3d6000fd5b505050506105578b6105528b8d61056b90919063ffffffff16565b6105cc565b5050505050505050505050565b6014015190565b6000828201838110156105c5576040805162461bcd60e51b815260206004820152601b60248201527f536166654d6174683a206164646974696f6e206f766572666c6f770000000000604482015290519081900360640190fd5b9392505050565b60008060009054906101000a90046001600160a01b03166001600160a01b031663ed6ff7606040518163ffffffff1660e01b815260040160206040518083038186803b15801561061b57600080fd5b505afa15801561062f573d6000803e3d6000fd5b505050506040513d602081101561064557600080fd5b50519050610654818484610659565b505050565b6106616106ea565b6001600160a01b0316826001600160a01b031614156106d0576040516001600160a01b038416908290600081818185875af1925050503d80600081146106c3576040519150601f19603f3d011682016040523d82523d6000602084013e6106c8565b606091505b505050610654565b6106546001600160a01b038316848363ffffffff61070216565b73eeeeeeeeeeeeeeeeeeeeeeeeeeeeeeeeeeeeeeee90565b604080516001600160a01b038416602482015260448082018490528251808303909101815260649091019091526020810180516001600160e01b031663a9059cbb60e01b179052610654908490610761826001600160a01b031661090d565b6107b2576040805162461bcd60e51b815260206004820152601f60248201527f5361666545524332303a2063616c6c20746f206e6f6e2d636f6e747261637400604482015290519081900360640190fd5b60006060836001600160a01b0316836040518082805190602001908083835b602083106107f05780518252601f1990920191602091820191016107d1565b6001836020036101000a0380198251168184511680821785525050505050509050019150506000604051808303816000865af19150503d8060008114610852576040519150601f19603f3d011682016040523d82523d6000602084013e610857565b606091505b5091509150816108ae576040805162461bcd60e51b815260206004820181905260248201527f5361666545524332303a206c6f772d6c6576656c2063616c6c206661696c6564604482015290519081900360640190fd5b805115610907578080602001905160208110156108ca57600080fd5b50516109075760405162461bcd60e51b815260040180806020018281038252602a81526020018061094a602a913960400191505060405180910390fd5b50505050565b6000813f7fc5d2460186f7233c927e7db2dcc703c0e500b653ca82273b7bfad8045d85a47081158015906109415750808214155b94935050505056fe5361666545524332303a204552433230206f7065726174696f6e20646964206e6f742073756363656564a265627a7a7230582067c9b84e4034d6e92e416d6b8087c6a3c6b4209e0b7a0514066d5a565723e9d464736f6c634300050a0032",
  "source": "pragma solidity 0.5.10;\n\nimport \"@openzeppelin/contracts/math/SafeMath.sol\";\nimport \"./FlashLoanReceiverBase.sol\";\nimport \"./OptionsContract.sol\";\nimport \"./OptionsExchange.sol\";\nimport \"./ILendingPoolAddressesProvider.sol\";\n\n\ncontract Liquidator is FlashLoanReceiverBase {\n    using SafeMath for uint256;\n\n    constructor(ILendingPoolAddressesProvider ILendingAddress)\n        public\n        FlashLoanReceiverBase(ILendingAddress)\n    {}\n\n    function executeOperation(\n        address _reserve,\n        uint256 _amount,\n        uint256 _fee,\n        bytes calldata _params\n    ) external {\n        (address oTokenAddr, address _vaultOwner) = getParams(_params);\n        address payable vaultOwner = address(uint160(_vaultOwner));\n        OptionsContract oToken = OptionsContract(oTokenAddr);\n        // 1. Get _amount from the reserve pool\n        // 2. Buy oTokens on uniswap\n        uint256 oTokensToBuy = oToken.maxOTokensLiquidatable(vaultOwner);\n        require(oTokensToBuy > 0, \"cannot liquidate a safe vault\");\n\n        OptionsExchange exchange = OptionsExchange(oToken.optionsExchange());\n        exchange.buyOTokens.value(_amount)(\n            address(this),\n            oTokenAddr,\n            address(0),\n            oTokensToBuy\n        );\n        // 3. Liquidate\n        oToken.liquidate(vaultOwner, oTokensToBuy);\n        // 4. pay back the $\n        transferFundsBackToPoolInternal(_reserve, _amount.add(_fee));\n    }\n\n    function bytesToAddress(bytes memory bys)\n        private\n        pure\n        returns (address addr)\n    {\n        //solium-disable-next-line\n        assembly {\n            addr := mload(add(bys, 20))\n        }\n    }\n\n    function getParams(bytes memory source)\n        public\n        pure\n        returns (address, address)\n    {\n        bytes memory half1 = new bytes(20);\n        bytes memory half2 = new bytes(20);\n        for (uint256 j = 0; j < 20; j++) {\n            half1[j] = source[j];\n            half2[j] = source[j + 20];\n        }\n        return (bytesToAddress(half1), bytesToAddress(half2));\n    }\n}\n",
  "sourcePath": "/Users/antonasso/programming/ethdenver/opyn/LiquidatorBot/contracts/Liquidator.sol",
  "compiler": {
    "name": "solc",
    "version": "0.5.10+commit.5a6ea5b1.Emscripten.clang"
  },
  "schemaVersion": "3.0.19",
  "updatedAt": "2020-02-26T00:01:58.803Z",
  "devdoc": {
    "methods": {}
  },
  "userdoc": {
    "methods": {}
  }
}